{
  "_format": "hh-sol-artifact-1",
  "contractName": "EthBridge",
  "sourceName": "contracts/EthBridge.sol",
  "abi": [
    {
      "inputs": [
        {
          "internalType": "contract WToken",
          "name": "token",
          "type": "address"
        }
      ],
      "stateMutability": "nonpayable",
      "type": "constructor"
    },
    {
      "anonymous": false,
      "inputs": [
        {
          "indexed": false,
          "internalType": "address",
          "name": "sender",
          "type": "address"
        },
        {
          "indexed": false,
          "internalType": "uint256",
          "name": "amount",
          "type": "uint256"
        },
        {
          "indexed": false,
          "internalType": "uint256",
          "name": "date",
          "type": "uint256"
        }
      ],
      "name": "Claimed",
      "type": "event"
    },
    {
      "anonymous": false,
      "inputs": [
        {
          "indexed": false,
          "internalType": "address",
          "name": "sender",
          "type": "address"
        },
        {
          "indexed": false,
          "internalType": "uint256",
          "name": "amount",
          "type": "uint256"
        },
        {
          "indexed": false,
          "internalType": "uint256",
          "name": "date",
          "type": "uint256"
        }
      ],
      "name": "Locked",
      "type": "event"
    },
    {
      "inputs": [],
      "name": "_token",
      "outputs": [
        {
          "internalType": "contract WToken",
          "name": "",
          "type": "address"
        }
      ],
      "stateMutability": "view",
      "type": "function"
    },
    {
      "inputs": [
        {
          "internalType": "address",
          "name": "",
          "type": "address"
        }
      ],
      "name": "amountLocked",
      "outputs": [
        {
          "internalType": "uint256",
          "name": "",
          "type": "uint256"
        }
      ],
      "stateMutability": "view",
      "type": "function"
    },
    {
      "inputs": [
        {
          "internalType": "uint256",
          "name": "amount",
          "type": "uint256"
        }
      ],
      "name": "claim",
      "outputs": [],
      "stateMutability": "nonpayable",
      "type": "function"
    },
    {
      "inputs": [
        {
          "internalType": "uint256",
          "name": "amount",
          "type": "uint256"
        }
      ],
      "name": "lock",
      "outputs": [],
      "stateMutability": "nonpayable",
      "type": "function"
    }
  ],
  "bytecode": "0x608060405234801561001057600080fd5b5060405161040e38038061040e83398101604081905261002f91610054565b600080546001600160a01b0319166001600160a01b0392909216919091179055610084565b60006020828403121561006657600080fd5b81516001600160a01b038116811461007d57600080fd5b9392505050565b61037b806100936000396000f3fe608060405234801561001057600080fd5b506004361061004c5760003560e01c8063379607f514610051578063dd46706414610066578063ecd0c0c314610079578063f6c788b2146100a9575b600080fd5b61006461005f366004610298565b6100d7565b005b610064610074366004610298565b6101b8565b60005461008c906001600160a01b031681565b6040516001600160a01b0390911681526020015b60405180910390f35b6100c96100b73660046102b1565b60016020526000908152604090205481565b6040519081526020016100a0565b60005460405163a9059cbb60e01b8152336004820152602481018390526001600160a01b039091169063a9059cbb906044016020604051808303816000875af1158015610128573d6000803e3d6000fd5b505050506040513d601f19601f8201168201806040525081019061014c91906102e1565b50336000908152600160205260408120805483929061016c908490610319565b9091555050604080513381526020810183905242918101919091527f987d620f307ff6b94d58743cb7a7509f24071586a77759b77c2d4e29f75a2f9a906060015b60405180910390a150565b6000546040516323b872dd60e01b8152336004820152306024820152604481018390526001600160a01b03909116906323b872dd906064016020604051808303816000875af115801561020f573d6000803e3d6000fd5b505050506040513d601f19601f8201168201806040525081019061023391906102e1565b503360009081526001602052604081208054839290610253908490610332565b9091555050604080513381526020810183905242918101919091527fd4665e3049283582ba6f9eba07a5b3e12dab49e02da99e8927a47af5d134bea5906060016101ad565b6000602082840312156102aa57600080fd5b5035919050565b6000602082840312156102c357600080fd5b81356001600160a01b03811681146102da57600080fd5b9392505050565b6000602082840312156102f357600080fd5b815180151581146102da57600080fd5b634e487b7160e01b600052601160045260246000fd5b8181038181111561032c5761032c610303565b92915050565b8082018082111561032c5761032c61030356fea2646970667358221220bf6c40d3d119ed7965aa67723fd54ef2ce151197b5ec893ff8229d5be2bc5ca964736f6c63430008110033",
  "linkReferences": {},
  "deployedLinkReferences": {}
}