{
  "_format": "hh-sol-artifact-1",
  "contractName": "NativeBridge",
  "sourceName": "contracts/NativeBridge.sol",
  "abi": [
    {
      "inputs": [],
      "stateMutability": "nonpayable",
      "type": "constructor"
    },
    {
      "inputs": [
        {
          "internalType": "address",
          "name": "",
          "type": "address"
        },
        {
          "internalType": "bytes32",
          "name": "",
          "type": "bytes32"
        }
      ],
      "name": "balances",
      "outputs": [
        {
          "internalType": "uint256",
          "name": "",
          "type": "uint256"
        }
      ],
      "stateMutability": "view",
      "type": "function"
    },
    {
      "inputs": [
        {
          "internalType": "uint256",
          "name": "amount",
          "type": "uint256"
        },
        {
          "internalType": "bytes32",
          "name": "symbol",
          "type": "bytes32"
        }
      ],
      "name": "depositTokens",
      "outputs": [],
      "stateMutability": "nonpayable",
      "type": "function"
    },
    {
      "inputs": [
        {
          "internalType": "bytes32",
          "name": "symbol",
          "type": "bytes32"
        }
      ],
      "name": "getBalance",
      "outputs": [
        {
          "internalType": "uint256",
          "name": "",
          "type": "uint256"
        }
      ],
      "stateMutability": "view",
      "type": "function"
    },
    {
      "inputs": [
        {
          "internalType": "uint256",
          "name": "",
          "type": "uint256"
        }
      ],
      "name": "whitelistedSymbols",
      "outputs": [
        {
          "internalType": "bytes32",
          "name": "",
          "type": "bytes32"
        }
      ],
      "stateMutability": "view",
      "type": "function"
    },
    {
      "inputs": [
        {
          "internalType": "bytes32",
          "name": "",
          "type": "bytes32"
        }
      ],
      "name": "whitelistedTokens",
      "outputs": [
        {
          "internalType": "address",
          "name": "",
          "type": "address"
        }
      ],
      "stateMutability": "view",
      "type": "function"
    },
    {
      "inputs": [
        {
          "internalType": "uint256",
          "name": "amount",
          "type": "uint256"
        }
      ],
      "name": "withdrawEther",
      "outputs": [],
      "stateMutability": "nonpayable",
      "type": "function"
    },
    {
      "inputs": [
        {
          "internalType": "uint256",
          "name": "amount",
          "type": "uint256"
        },
        {
          "internalType": "bytes32",
          "name": "symbol",
          "type": "bytes32"
        }
      ],
      "name": "withdrawTokens",
      "outputs": [],
      "stateMutability": "nonpayable",
      "type": "function"
    },
    {
      "stateMutability": "payable",
      "type": "receive"
    }
  ],
  "bytecode": "0x608060405234801561001057600080fd5b50600080546001600160a01b031916331790556105b7806100326000396000f3fe6080604052600436106100745760003560e01c80638e7394611161004e5780638e739461146101435780638f97994b1461017b578063aa3d9a151461019b578063d15b223e146101e957600080fd5b80631f14df69146100b65780633bed33ce146101015780634762b9761461012357600080fd5b366100b1573360009081526003602090815260408083206208ae8d60eb1b8452909152812080543492906100a99084906104b9565b925050819055005b600080fd5b3480156100c257600080fd5b506100ee6100d13660046104d2565b600360209081526000928352604080842090915290825290205481565b6040519081526020015b60405180910390f35b34801561010d57600080fd5b5061012161011c36600461050a565b610209565b005b34801561012f57600080fd5b506100ee61013e36600461050a565b6102f3565b34801561014f57600080fd5b506100ee61015e36600461050a565b336000908152600360209081526040808320938352929052205490565b34801561018757600080fd5b50610121610196366004610523565b610314565b3480156101a757600080fd5b506101d16101b636600461050a565b6002602052600090815260409020546001600160a01b031681565b6040516001600160a01b0390911681526020016100f8565b3480156101f557600080fd5b50610121610204366004610523565b61042a565b3360009081526003602090815260408083206208ae8d60eb1b84529091529020548111156102735760405162461bcd60e51b8152602060048201526012602482015271696e73756666696369656e742066756e647360701b60448201526064015b60405180910390fd5b3360009081526003602090815260408083206208ae8d60eb1b8452909152812080548392906102a3908490610545565b909155505060405133908290600081818185875af1925050503d80600081146102e8576040519150601f19603f3d011682016040523d82523d6000602084013e6102ed565b606091505b50505050565b6001818154811061030357600080fd5b600091825260209091200154905081565b3360009081526003602090815260408083208484529091529020548211156103735760405162461bcd60e51b8152602060048201526012602482015271696e73756666696369656e742066756e647360701b604482015260640161026a565b3360009081526003602090815260408083208484529091528120805484929061039d908490610545565b90915550506000818152600260205260409081902054905163a9059cbb60e01b8152336004820152602481018490526001600160a01b039091169063a9059cbb906044015b6020604051808303816000875af1158015610401573d6000803e3d6000fd5b505050506040513d601f19601f820116820180604052508101906104259190610558565b505050565b336000908152600360209081526040808320848452909152812080548492906104549084906104b9565b9091555050600081815260026020526040908190205490516323b872dd60e01b8152336004820152306024820152604481018490526001600160a01b03909116906323b872dd906064016103e2565b634e487b7160e01b600052601160045260246000fd5b808201808211156104cc576104cc6104a3565b92915050565b600080604083850312156104e557600080fd5b82356001600160a01b03811681146104fc57600080fd5b946020939093013593505050565b60006020828403121561051c57600080fd5b5035919050565b6000806040838503121561053657600080fd5b50508035926020909101359150565b818103818111156104cc576104cc6104a3565b60006020828403121561056a57600080fd5b8151801515811461057a57600080fd5b939250505056fea264697066735822122041f0194f98c55ff4e96aead794740572a8ed45d8de8d727c913e690220070d7664736f6c63430008110033",
  "linkReferences": {},
  "deployedLinkReferences": {}
}